{
  "contractName": "Academy",
  "abi": [
    {
      "constant": false,
      "inputs": [],
      "name": "renounceOwnership",
      "outputs": [],
      "payable": false,
      "stateMutability": "nonpayable",
      "type": "function"
    },
    {
      "constant": true,
      "inputs": [],
      "name": "owner",
      "outputs": [
        {
          "name": "",
          "type": "address"
        }
      ],
      "payable": false,
      "stateMutability": "view",
      "type": "function"
    },
    {
      "constant": true,
      "inputs": [],
      "name": "isOwner",
      "outputs": [
        {
          "name": "",
          "type": "bool"
        }
      ],
      "payable": false,
      "stateMutability": "view",
      "type": "function"
    },
    {
      "constant": false,
      "inputs": [
        {
          "name": "newOwner",
          "type": "address"
        }
      ],
      "name": "transferOwnership",
      "outputs": [],
      "payable": false,
      "stateMutability": "nonpayable",
      "type": "function"
    },
    {
      "inputs": [
        {
          "name": "_myTokenContract",
          "type": "address"
        }
      ],
      "payable": false,
      "stateMutability": "nonpayable",
      "type": "constructor"
    },
    {
      "anonymous": false,
      "inputs": [
        {
          "indexed": false,
          "name": "course",
          "type": "address"
        },
        {
          "indexed": false,
          "name": "student",
          "type": "address"
        }
      ],
      "name": "TokenDistributionResolved",
      "type": "event"
    },
    {
      "anonymous": false,
      "inputs": [
        {
          "indexed": true,
          "name": "previousOwner",
          "type": "address"
        },
        {
          "indexed": true,
          "name": "newOwner",
          "type": "address"
        }
      ],
      "name": "OwnershipTransferred",
      "type": "event"
    },
    {
      "constant": false,
      "inputs": [
        {
          "name": "recipient",
          "type": "address"
        },
        {
          "name": "amount",
          "type": "uint256"
        }
      ],
      "name": "transfer",
      "outputs": [
        {
          "name": "",
          "type": "bool"
        }
      ],
      "payable": false,
      "stateMutability": "nonpayable",
      "type": "function"
    },
    {
      "constant": false,
      "inputs": [
        {
          "name": "user",
          "type": "address"
        }
      ],
      "name": "addUser",
      "outputs": [
        {
          "name": "",
          "type": "bool"
        }
      ],
      "payable": false,
      "stateMutability": "nonpayable",
      "type": "function"
    },
    {
      "constant": false,
      "inputs": [
        {
          "name": "user",
          "type": "address"
        },
        {
          "name": "initialFund",
          "type": "uint256"
        }
      ],
      "name": "addUser",
      "outputs": [
        {
          "name": "",
          "type": "bool"
        }
      ],
      "payable": false,
      "stateMutability": "nonpayable",
      "type": "function"
    },
    {
      "constant": true,
      "inputs": [
        {
          "name": "maybeUser",
          "type": "address"
        }
      ],
      "name": "actualUser",
      "outputs": [
        {
          "name": "",
          "type": "bool"
        }
      ],
      "payable": false,
      "stateMutability": "view",
      "type": "function"
    },
    {
      "constant": true,
      "inputs": [],
      "name": "getTokenAddress",
      "outputs": [
        {
          "name": "",
          "type": "address"
        }
      ],
      "payable": false,
      "stateMutability": "view",
      "type": "function"
    },
    {
      "constant": false,
      "inputs": [
        {
          "name": "course",
          "type": "address"
        },
        {
          "name": "_value",
          "type": "uint256"
        }
      ],
      "name": "createCourse",
      "outputs": [],
      "payable": false,
      "stateMutability": "nonpayable",
      "type": "function"
    },
    {
      "constant": false,
      "inputs": [
        {
          "name": "course",
          "type": "address"
        },
        {
          "name": "newTutor",
          "type": "address"
        }
      ],
      "name": "changeTutor",
      "outputs": [],
      "payable": false,
      "stateMutability": "nonpayable",
      "type": "function"
    },
    {
      "constant": false,
      "inputs": [
        {
          "name": "course",
          "type": "address"
        }
      ],
      "name": "signup",
      "outputs": [],
      "payable": false,
      "stateMutability": "nonpayable",
      "type": "function"
    },
    {
      "constant": false,
      "inputs": [
        {
          "name": "course",
          "type": "address"
        },
        {
          "name": "student",
          "type": "address"
        }
      ],
      "name": "setAttendance",
      "outputs": [],
      "payable": false,
      "stateMutability": "nonpayable",
      "type": "function"
    },
    {
      "constant": false,
      "inputs": [
        {
          "name": "course",
          "type": "address"
        },
        {
          "name": "feedback",
          "type": "uint256"
        }
      ],
      "name": "provideFeedback",
      "outputs": [],
      "payable": false,
      "stateMutability": "nonpayable",
      "type": "function"
    }
  ],
  "bytecode": "0x608060405260028054600160a060020a03191673f96bec259985175cf8aba01decdc8e04d5067fd317905563017d784060035534801561003e57600080fd5b506040516020806113908339810180604052602081101561005e57600080fd5b505160008054600160a060020a0319163317808255604051600160a060020a039190911691907f8be0079c531659141344cd1fd0a4f28419497f9722a3daafe3b4186f6b6457e0908290a3600160a060020a038116156100d45760028054600160a060020a031916600160a060020a0383161790555b5060025460018054600160a060020a031916600160a060020a0390921691909117905561128a806101066000396000f3fe608060405234801561001057600080fd5b5060043610610107576000357c010000000000000000000000000000000000000000000000000000000090048063715018a6116100a9578063a9059cbb11610083578063a9059cbb14610256578063d301719314610282578063d310b632146102ae578063f2fde38b146102dc57610107565b8063715018a61461023e5780638da5cb5b146102465780638f32d59b1461024e57610107565b8063316df4b5116100e5578063316df4b51461018a5780633e57cb14146101b057806341125397146101ea578063421b2d8b1461021857610107565b8063049d244a1461010c57806310fe9ae81461013a57806328374f471461015e575b600080fd5b6101386004803603604081101561012257600080fd5b50600160a060020a038135169060200135610302565b005b61014261047e565b60408051600160a060020a039092168252519081900360200190f35b6101386004803603604081101561017457600080fd5b50600160a060020a03813516906020013561048d565b610138600480360360208110156101a057600080fd5b5035600160a060020a031661065a565b6101d6600480360360208110156101c657600080fd5b5035600160a060020a03166107e4565b604080519115158252519081900360200190f35b6101386004803603604081101561020057600080fd5b50600160a060020a0381358116916020013516610802565b6101d66004803603602081101561022e57600080fd5b5035600160a060020a031661096f565b610138610998565b610142610a02565b6101d6610a11565b6101d66004803603604081101561026c57600080fd5b50600160a060020a038135169060200135610a22565b6101d66004803603604081101561029857600080fd5b50600160a060020a038135169060200135610ae1565b610138600480360360408110156102c457600080fd5b50600160a060020a0381358116916020013516610b09565b610138600480360360208110156102f257600080fd5b5035600160a060020a0316610bec565b3360009081526006602052604090205460ff16151561036b576040805160e560020a62461bcd02815260206004820181905260248201527f456c207573756172696f206e6f20657374c3a1206461646f20646520616c7461604482015290519081900360640190fd5b600160a060020a03821615156103cb576040805160e560020a62461bcd02815260206004820181905260248201527f4964656e746966696361646f7220646520637572736f20696e76c3a16c69646f604482015290519081900360640190fd5b600160a060020a03828116600090815260046020526040902054161561043b576040805160e560020a62461bcd02815260206004820152601260248201527f456c20637572736f207961206578697374650000000000000000000000000000604482015290519081900360640190fd5b600160a060020a039091166000908152600460209081526040808320805473ffffffffffffffffffffffffffffffffffffffff1916331790556005909152902055565b600254600160a060020a031690565b336000908152600760209081526040808320600160a060020a0386168452909152902054829060ff1615156104f65760405160e560020a62461bcd0281526004018080602001828103825260278152602001806111da6027913960400191505060405180910390fd5b60048211158015610508575060008210155b15156105485760405160e560020a62461bcd0281526004018080602001828103825260368152602001806111816036913960400191505060405180910390fd5b336000908152600960209081526040808320600160a060020a038716845290915290205460ff16156105ae5760405160e560020a62461bcd02815260040180806020018281038252603381526020018061122c6033913960400191505060405180910390fd5b60006105c183601963ffffffff610c0b16565b600160a060020a0385166000908152600560205260409020549091506105ee90829063ffffffff610c0b16565b905061060181606463ffffffff610c3d16565b336000818152600a60209081526040808320600160a060020a038a16808552908352818420959095558383526009825280832094835293905291909120805460ff19166001179055610654908590610c61565b50505050565b3360009081526006602052604090205460ff1615156106c3576040805160e560020a62461bcd02815260206004820181905260248201527f456c207573756172696f206e6f20657374c3a1206461646f20646520616c7461604482015290519081900360640190fd5b600154600160a060020a0382811660009081526005602090815260408083205481517f23b872dd0000000000000000000000000000000000000000000000000000000081523360048201523060248201526044810191909152905193909416936323b872dd9360648083019491928390030190829087803b15801561074757600080fd5b505af115801561075b573d6000803e3d6000fd5b505050506040513d602081101561077157600080fd5b505115156107b35760405160e560020a62461bcd02815260040180806020018281038252603581526020018061114c6035913960400191505060405180910390fd5b336000908152600760209081526040808320600160a060020a0394909416835292905220805460ff19166001179055565b600160a060020a031660009081526006602052604090205460ff1690565b600160a060020a03808316600090815260046020526040902054839116331461085f5760405160e560020a62461bcd0281526004018080602001828103825260238152602001806111b76023913960400191505060405180910390fd5b600160a060020a0380831660009081526007602090815260408083209387168352929052205460ff1615156108c85760405160e560020a62461bcd0281526004018080602001828103825260278152602001806111da6027913960400191505060405180910390fd5b600160a060020a0380831660009081526008602090815260408083209387168352929052205460ff16156109305760405160e560020a62461bcd02815260040180806020018281038252604a815260200180611102604a913960600191505060405180910390fd5b600160a060020a038083166000908152600860209081526040808320938716835292905220805460ff1916600117905561096a8383610c61565b505050565b6000610979610a11565b151561098457600080fd5b61099082600354610f5c565b506001919050565b6109a0610a11565b15156109ab57600080fd5b60008054604051600160a060020a03909116907f8be0079c531659141344cd1fd0a4f28419497f9722a3daafe3b4186f6b6457e0908390a36000805473ffffffffffffffffffffffffffffffffffffffff19169055565b600054600160a060020a031690565b600054600160a060020a0316331490565b6000610a2c610a11565b1515610a3757600080fd5b600154604080517f23b872dd000000000000000000000000000000000000000000000000000000008152306004820152600160a060020a03868116602483015260448201869052915191909216916323b872dd9160648083019260209291908290030181600087803b158015610aac57600080fd5b505af1158015610ac0573d6000803e3d6000fd5b505050506040513d6020811015610ad657600080fd5b505190505b92915050565b6000610aeb610a11565b1515610af657600080fd5b610b008383610f5c565b50600192915050565b600160a060020a038083166000908152600460205260409020548391163314610b665760405160e560020a62461bcd0281526004018080602001828103825260238152602001806111b76023913960400191505060405180910390fd5b600160a060020a0382161515610bb05760405160e560020a62461bcd02815260040180806020018281038252602b815260200180611201602b913960400191505060405180910390fd5b50600160a060020a039182166000908152600460205260409020805473ffffffffffffffffffffffffffffffffffffffff191691909216179055565b610bf4610a11565b1515610bff57600080fd5b610c0881611072565b50565b6000821515610c1c57506000610adb565b828202828482811515610c2b57fe5b0414610c3657600080fd5b9392505050565b6000808211610c4b57600080fd5b60008284811515610c5857fe5b04949350505050565b600160a060020a0380821660009081526008602090815260408083209386168352929052205460ff168015610cbb5750600160a060020a0380821660009081526009602090815260408083209386168352929052205460ff165b15610f5857600154600160a060020a038381166000818152600460208181526040808420548887168552600a83528185209585529482528084205481517fa9059cbb0000000000000000000000000000000000000000000000000000000081529587169386019390935260248501929092529051939094169363a9059cbb93604480850194929391928390030190829087803b158015610d5a57600080fd5b505af1158015610d6e573d6000803e3d6000fd5b505050506040513d6020811015610d8457600080fd5b5050600160a060020a038082166000908152600a6020908152604080832093861683529290529081205411610e03576040805160e560020a62461bcd02815260206004820152601e60248201527f2d2d2d776569676874656456616c75652070726f6261626c7920302d2d2d0000604482015290519081900360640190fd5b600160a060020a038216600090815260056020526040812054610e2d90601963ffffffff610c0b16565b9050610e4081606463ffffffff610c3d16565b600154600160a060020a03858116600090815260056020526040902054929350169063a9059cbb908490610e7a908563ffffffff6110ef16565b6040518363ffffffff167c01000000000000000000000000000000000000000000000000000000000281526004018083600160a060020a0316600160a060020a0316815260200182815260200192505050602060405180830381600087803b158015610ee557600080fd5b505af1158015610ef9573d6000803e3d6000fd5b505050506040513d6020811015610f0f57600080fd5b505060408051600160a060020a0380861682528416602082015281517fe906aa5747c0c0ac9471fd7e8651ef3a388ee381e2e7dc315893097eb369b2eb929181900390910190a1505b5050565b600154604080517fa9059cbb000000000000000000000000000000000000000000000000000000008152600160a060020a038581166004830152602482018590529151919092169163a9059cbb9160448083019260209291908290030181600087803b158015610fcb57600080fd5b505af1158015610fdf573d6000803e3d6000fd5b505050506040513d6020811015610ff557600080fd5b5051151561104d576040805160e560020a62461bcd02815260206004820152601c60248201527f4c612041636164656d696120657374c3a12073696e20666f6e646f7300000000604482015290519081900360640190fd5b50600160a060020a03166000908152600660205260409020805460ff19166001179055565b600160a060020a038116151561108757600080fd5b60008054604051600160a060020a03808516939216917f8be0079c531659141344cd1fd0a4f28419497f9722a3daafe3b4186f6b6457e091a36000805473ffffffffffffffffffffffffffffffffffffffff1916600160a060020a0392909216919091179055565b600082820183811015610c3657600080fdfe59612073652068612070726f706f7263696f6e61646f20696e666f726d616369c3b36e20736f627265206c61206173697374656e63696120646520657374612064697265636369c3b36e6e6f206861207369646f20706f7369626c65207265616c697a6172206c61207472616e7361636369c3b36e20646520746f6b656e7352616e676f20696e636f72726563746f2e20456c20666565646261636b20646562652073657220302c20312c20322c203320c3b32034456c207573756172696f206e6f20657320656c207475746f722064656c20637572736f456c20616c756d6e6f206e6f20657374c3a120696e73637269746f20656e20656c20637572736f4c612064697265636369c3b36e2064656c206e7565766f207475746f72206e6f2065732076c3a16c69646159612073652068612070726f706f7263696f6e61646f20666565646261636b20636f6e20657374612064697265636369c3b36ea165627a7a72305820e73341cbf1c510a867077f23543cd578f5ecb9ecf2e3134d85ef031b303cb8010029",
  "source": "pragma solidity ^0.5.2;\n\nimport {IERC20} from \"openzeppelin-solidity/contracts/token/ERC20/IERC20.sol\"; // FIXME Establecer la ruta correcta\nimport \"openzeppelin-solidity/contracts/ownership/Ownable.sol\"; // FIXME Establecer la ruta correcta\nimport \"openzeppelin-solidity/contracts/math/SafeMath.sol\"; // FIXME Establecer la ruta correcta\n\n/**\n * Gestión de cursos, inscritos, asistencias y feedback\n */\ncontract Academy is Ownable {\n    using SafeMath for uint256;\n\n\tIERC20 ierc20;\n    \n    address myTokenContract = 0xf96bEc259985175cF8aBa01dECDc8E04D5067fD3; // FIT Token (Formation Incentive Token)\n    \n    uint256 private defaultUserFund = 25000000; // TODO set() onlyOwner\n\n    mapping (address => address) tutor;                                     // curso => tutor\n    mapping (address => uint256) value;                                     // curso => valor en tokens\n    mapping (address => bool) isUser;                                       // usuario => ¿está dado de alta?\n    mapping (address => mapping (address => bool)) isSignedup;              // alumno => curso => ¿está inscrito?\n    mapping (address => mapping (address => bool)) isAttendanceConfirmed;   // alumno => curso => ¿ha asistido?\n    mapping (address => mapping (address => bool)) isFeedbackProvided;      // alumno => curso => ¿ha proporcionado feedback?\n    mapping (address => mapping (address => uint256)) weightedValue;           // alumno => curso => valor tras feedback\n    \n    event TokenDistributionResolved(address course, address student);\n\n\tconstructor(address _myTokenContract) public {\n\t    if (_myTokenContract != address(0))\n\t        myTokenContract = _myTokenContract;\n\t\tierc20 = IERC20(myTokenContract);\n\t}    \n\n\t/**\n\t * ¿Está este usuario dado de alta?\n\t */ \n\tmodifier onlyAuthorised() {\n\t    if (!isUser[msg.sender])\n\t        revert(\"El usuario no está dado de alta\");\n        _;\n\t}\n\t/**\n\t * ¿Es el tutor del curso?\n\t */\n\tmodifier onlyTutor(address course) {\n\t    if (tutor[course] != msg.sender)\n\t        revert(\"El usuario no es el tutor del curso\");\n        _;\n\t}\n\t/**\n\t * ¿Está el alumno inscrito en el curso?\n\t */\n    modifier onlySignedupStudent(address course) {\n        if (!isSignedup[msg.sender][course])\n            revert(\"El alumno no está inscrito en el curso\");\n\t    _;\n\t}\n\n\t/**\n\t * Permite al owner del contrato transferir los fondos de éste a otra dirección¡\n\t */\n    function transfer(address recipient, uint256 amount) public onlyOwner returns (bool) {\n        return ierc20.transferFrom(address(this), recipient, amount);\n    }\n\n\t/**\n\t * Da de alta un usuario en la Academia\n\t */\n\tfunction addUser(address user) public onlyOwner returns (bool) {\n\t    _addUser(user, defaultUserFund);\n\t    return true;\n\t}\n\tfunction addUser(address user, uint256 initialFund) public onlyOwner returns (bool) {\n\t    _addUser(user, initialFund);\n\t    return true;\n\t}\n\tfunction _addUser(address user, uint256 fund) internal {\n\t    require(ierc20.transfer(user, fund), \"La Academia está sin fondos\");\n\t\tisUser[user] = true;\n\t}\n\n\t/**\n     * Returns true if the address is the current User.\n     */\n    function actualUser(address maybeUser) public view returns (bool) {\n        return isUser[maybeUser];\n    }\n\t\n    /**\n     * Returns true if the address is the current User.\n     */\n    function getTokenAddress() public view returns (address) {\n        return myTokenContract;\n    }\n\n\t/**\n\t * Crear curso. Cualquier usuario dado de alta puede crear un curso\n\t */\n\tfunction createCourse(address course, uint256 _value) public onlyAuthorised {\n\t    require(course != address(0), \"Identificador de curso inválido\");\n\t    require(tutor[course] == address(0), \"El curso ya existe\");\n\n        tutor[course] = msg.sender;\n        value[course] = _value;\n\t}\n\n\t/**\n\t * Cambiar tutor de curso\n\t */\n\tfunction changeTutor(address course, address newTutor) public onlyTutor(course) {\n\t    require(newTutor != address(0), \"La dirección del nuevo tutor no es válida\"); \n\t        tutor[course] = newTutor;\n\t}\n\n\t/**\n\t * Inscripción en un curso. Cualquier usuario se pude inscribir\n\t */\n\tfunction signup(address course) public onlyAuthorised {\n\t    require(ierc20.transferFrom(msg.sender, address(this), value[course]), \"no ha sido posible realizar la transacción de tokens\");\n\t    isSignedup[msg.sender][course] = true;\n\t}\n\n\t/**\n\t * El tutor confirma la asistencia de un alumno\n\t */\n\tfunction setAttendance(address course, address student) public onlyTutor(course) {\n\t    require(isSignedup[student][course], \"El alumno no está inscrito en el curso\");\n\t\trequire(!isAttendanceConfirmed[student][course], \"Ya se ha proporcionado información sobre la asistencia de esta dirección\");\n\n\t    isAttendanceConfirmed[student][course] = true;\n\t    _resolveTokenDistribution(course, student);\n\t}\n\n\t/**\n\t * Feedback del curso proporcionado por el alumno\n\t */\n\tfunction provideFeedback(address course, uint256 feedback) public onlySignedupStudent(course) {\n\t    require((feedback <= 4) && (feedback >= 0), \"Rango incorrecto. El feedback debe ser 0, 1, 2, 3 ó 4\");\n\t    require(!isFeedbackProvided[msg.sender][course], \"Ya se ha proporcionado feedback con esta dirección\");\n\n\t    uint256 weight = feedback.mul(25);\n\t    weight = weight.mul(value[course]);\n\t    weightedValue[msg.sender][course] = weight.div(100);\n\t    \n\t    isFeedbackProvided[msg.sender][course] = true;\n\t    _resolveTokenDistribution(course, msg.sender);\n\t}\n\n\t/**\n\t * Resuelve el reparto de tokens\n\t */\n\tfunction _resolveTokenDistribution(address course, address student) internal {\n\t    if(isAttendanceConfirmed[student][course] && isFeedbackProvided[student][course]){\n\t\t\t/**\n\t\t\t*  Resuelve el envío de tokens al tutor\n\t\t\t*/\n\t\t\tierc20.transfer(tutor[course], weightedValue[student][course]);\n\t\t\trequire((weightedValue[student][course]>0), \"---weightedValue probably 0---\");\n\t\t\t/**\n\t\t\t*  Resuelve el envío de tokens al alumno\n\t\t\t*/\n\t\t\tuint256 bonus = value[course].mul(25);\n\t\t\tbonus = bonus.div(100);\n\t\t\tierc20.transfer(student, value[course].add(bonus));\n\t\t\t// ierc20.transferFrom(address(this), tutor[course], weightedValue[msg.sender][course]);\n\n\t\t\temit TokenDistributionResolved(course, student);\n\t\t}\n\t}\n}",
  "sourcePath": "C:/Users/x5598jg/Desktop/react-PoC academia/fit-7b840a1644df8ff21873bbc660cf4ceeb15f32b6/my_token/contracts/Academy.sol",
  "compiler": {
    "name": "solc",
    "version": "0.5.2+commit.1df8f40c.Emscripten.clang"
  },
  "schemaVersion": "3.0.11",
  "updatedAt": "2019-08-20T06:24:03.745Z",
  "devdoc": {
    "methods": {
      "isOwner()": {
        "return": "true if `msg.sender` is the owner of the contract."
      },
      "owner()": {
        "return": "the address of the owner."
      },
      "renounceOwnership()": {
        "details": "Allows the current owner to relinquish control of the contract. It will not be possible to call the functions with the `onlyOwner` modifier anymore."
      },
      "transferOwnership(address)": {
        "details": "Allows the current owner to transfer control of the contract to a newOwner.",
        "params": {
          "newOwner": "The address to transfer ownership to."
        }
      }
    }
  },
  "userdoc": {
    "methods": {
      "actualUser(address)": {
        "notice": "Returns true if the address is the current User."
      },
      "addUser(address)": {
        "notice": "Da de alta un usuario en la Academia"
      },
      "changeTutor(address,address)": {
        "notice": "Cambiar tutor de curso"
      },
      "createCourse(address,uint256)": {
        "notice": "Crear curso. Cualquier usuario dado de alta puede crear un curso"
      },
      "getTokenAddress()": {
        "notice": "Returns true if the address is the current User."
      },
      "provideFeedback(address,uint256)": {
        "notice": "Feedback del curso proporcionado por el alumno"
      },
      "renounceOwnership()": {
        "notice": "Renouncing ownership will leave the contract without an owner, thereby removing any functionality that is only available to the owner."
      },
      "setAttendance(address,address)": {
        "notice": "El tutor confirma la asistencia de un alumno"
      },
      "signup(address)": {
        "notice": "Inscripción en un curso. Cualquier usuario se pude inscribir"
      },
      "transfer(address,uint256)": {
        "notice": "Permite al owner del contrato transferir los fondos de éste a otra dirección¡"
      }
    },
    "notice": "Gestión de cursos, inscritos, asistencias y feedback"
  }
}