{
  "contractName": "ElectricMeter",
  "abi": [
    {
      "constant": true,
      "inputs": [],
      "name": "seller",
      "outputs": [
        {
          "name": "",
          "type": "address"
        }
      ],
      "payable": false,
      "stateMutability": "view",
      "type": "function"
    },
    {
      "constant": true,
      "inputs": [],
      "name": "beneficiary",
      "outputs": [
        {
          "name": "",
          "type": "address"
        }
      ],
      "payable": false,
      "stateMutability": "view",
      "type": "function"
    },
    {
      "constant": true,
      "inputs": [],
      "name": "buyer",
      "outputs": [
        {
          "name": "",
          "type": "address"
        }
      ],
      "payable": false,
      "stateMutability": "view",
      "type": "function"
    },
    {
      "constant": true,
      "inputs": [],
      "name": "valor",
      "outputs": [
        {
          "name": "",
          "type": "uint256"
        }
      ],
      "payable": false,
      "stateMutability": "view",
      "type": "function"
    },
    {
      "inputs": [
        {
          "name": "tasaAddress",
          "type": "address"
        }
      ],
      "payable": false,
      "stateMutability": "nonpayable",
      "type": "constructor"
    },
    {
      "payable": true,
      "stateMutability": "payable",
      "type": "fallback"
    },
    {
      "anonymous": false,
      "inputs": [
        {
          "indexed": false,
          "name": "_date",
          "type": "uint256"
        },
        {
          "indexed": false,
          "name": "increment",
          "type": "uint256"
        },
        {
          "indexed": false,
          "name": "ipfsHash",
          "type": "string"
        },
        {
          "indexed": false,
          "name": "idUser",
          "type": "address"
        }
      ],
      "name": "IncrementCount",
      "type": "event"
    },
    {
      "anonymous": false,
      "inputs": [
        {
          "indexed": false,
          "name": "_date",
          "type": "uint256"
        },
        {
          "indexed": false,
          "name": "medida",
          "type": "uint256"
        },
        {
          "indexed": false,
          "name": "idUser",
          "type": "address"
        },
        {
          "indexed": false,
          "name": "tasaEther",
          "type": "uint256"
        },
        {
          "indexed": false,
          "name": "tasaKw",
          "type": "uint256"
        },
        {
          "indexed": false,
          "name": "precision",
          "type": "uint256"
        }
      ],
      "name": "Payments",
      "type": "event"
    },
    {
      "constant": false,
      "inputs": [
        {
          "name": "value",
          "type": "uint256"
        },
        {
          "name": "user",
          "type": "address"
        }
      ],
      "name": "addNewUser",
      "outputs": [],
      "payable": false,
      "stateMutability": "nonpayable",
      "type": "function"
    },
    {
      "constant": false,
      "inputs": [
        {
          "name": "value",
          "type": "uint256"
        },
        {
          "name": "ipfsHash",
          "type": "string"
        },
        {
          "name": "user",
          "type": "address"
        }
      ],
      "name": "incrementCount",
      "outputs": [
        {
          "name": "",
          "type": "uint256"
        }
      ],
      "payable": false,
      "stateMutability": "nonpayable",
      "type": "function"
    },
    {
      "constant": true,
      "inputs": [
        {
          "name": "user",
          "type": "address"
        }
      ],
      "name": "getCount",
      "outputs": [
        {
          "name": "",
          "type": "uint256"
        }
      ],
      "payable": false,
      "stateMutability": "view",
      "type": "function"
    },
    {
      "constant": false,
      "inputs": [],
      "name": "injectFounds",
      "outputs": [],
      "payable": true,
      "stateMutability": "payable",
      "type": "function"
    },
    {
      "constant": false,
      "inputs": [],
      "name": "rejectFounds",
      "outputs": [],
      "payable": false,
      "stateMutability": "nonpayable",
      "type": "function"
    },
    {
      "constant": false,
      "inputs": [],
      "name": "getBalance",
      "outputs": [
        {
          "name": "",
          "type": "uint256"
        }
      ],
      "payable": false,
      "stateMutability": "nonpayable",
      "type": "function"
    }
  ],
  "bytecode": "0x608060405260018054600160a060020a031916730dbd283cfc279ac5e2f630205b29883c0c2a9abe17905534801561003657600080fd5b50604051602080610cec8339810180604052602081101561005657600080fd5b505160048054600160a060020a0319908116339081179092556000918252600760205260408220805460ff191660011790558154600160a060020a039093169216919091179055610c40806100ac6000396000f3fe6080604052600436106100ae576000357c010000000000000000000000000000000000000000000000000000000090048063c591da2a11610076578063c591da2a14610165578063c7bdc8351461017a578063c81033371461023f578063ecbac7cf14610247578063f07cf42f1461025c576100ae565b806308551a53146100b057806312065fe0146100e157806338af3eed146101085780634f0cd27b1461011d5780637150d8ae14610150575b005b3480156100bc57600080fd5b506100c5610295565b60408051600160a060020a039092168252519081900360200190f35b3480156100ed57600080fd5b506100f66102a4565b60408051918252519081900360200190f35b34801561011457600080fd5b506100c56102b7565b34801561012957600080fd5b506100f66004803603602081101561014057600080fd5b5035600160a060020a03166102c6565b34801561015c57600080fd5b506100c56102e1565b34801561017157600080fd5b506100ae6102f0565b34801561018657600080fd5b506100f66004803603606081101561019d57600080fd5b813591908101906040810160208201356401000000008111156101bf57600080fd5b8201836020820111156101d157600080fd5b803590602001918460018302840111640100000000831117156101f357600080fd5b91908080601f01602080910402602001604051908101604052809392919081815260200183838082843760009201919091525092955050509035600160a060020a031691506103ba9050565b6100ae6105c6565b34801561025357600080fd5b506100f66105f2565b34801561026857600080fd5b506100ae6004803603604081101561027f57600080fd5b5080359060200135600160a060020a03166105f8565b600154600160a060020a031681565b3360009081526006602052604090205490565b600454600160a060020a031681565b600160a060020a031660009081526005602052604090205490565b600354600160a060020a031681565b3360009081526007602052604090205460ff16151561037057604080517f08c379a000000000000000000000000000000000000000000000000000000000815260206004820181905260248201527f456c207573756172696f206e6f20657374c3a1206461646f20646520616c7461604482015290519081900360640190fd5b3360008181526006602052604080822054905181156108fc0292818181858888f193505050501580156103a7573d6000803e3d6000fd5b5033600090815260066020526040812055565b600160a060020a038116600090815260056020526040812054610bb8908501106104cd57600160a060020a038216600090815260056020526040902080548501905561040582610612565b7f7416a5d44459782c28e562319cfed085c8d79a67b5636d345cca376183913e5742858585604051808581526020018481526020018060200183600160a060020a0316600160a060020a03168152602001828103825284818151815260200191508051906020019080838360005b8381101561048b578181015183820152602001610473565b50505050905090810190601f1680156104b85780820380516001836020036101000a031916815260200191505b509550505050505060405180910390a16105a7565b600160a060020a03821660008181526005602090815260408083208054890190558051428082528184018a90526060820195909552608091810182815288519282019290925287517f7416a5d44459782c28e562319cfed085c8d79a67b5636d345cca376183913e5795948a948a948a9493909260a0850192870191908190849084905b83811015610569578181015183820152602001610551565b50505050905090810190601f1680156105965780820380516001836020036101000a031916815260200191505b509550505050505060405180910390a15b50600160a060020a031660009081526006602052604090205492915050565b33600090815260066020908152604080832080543401905560079091529020805460ff19166001179055565b60025481565b600160a060020a0316600090815260056020526040902055565b60015460008054604080517f9670c0bc0000000000000000000000000000000000000000000000000000000081529051600160a060020a03948516946108fc94931692639670c0bc92600480820193602093909283900390910190829087803b15801561067e57600080fd5b505af1158015610692573d6000803e3d6000fd5b505050506040513d60208110156106a857600080fd5b505160008054604080517f3ff06af50000000000000000000000000000000000000000000000000000000081529051600160a060020a0390921692633ff06af5926004808401936020939083900390910190829087803b15801561070b57600080fd5b505af115801561071f573d6000803e3d6000fd5b505050506040513d602081101561073557600080fd5b505160008054604080517ffe2079be0000000000000000000000000000000000000000000000000000000081529051600160a060020a039092169263fe2079be926004808401936020939083900390910190829087803b15801561079857600080fd5b505af11580156107ac573d6000803e3d6000fd5b505050506040513d60208110156107c257600080fd5b5051600160a060020a038616600090815260056020526040808220549051920292909202929092028015909302929190818181858888f1935050505015801561080f573d6000803e3d6000fd5b506000809054906101000a9004600160a060020a0316600160a060020a0316639670c0bc6040518163ffffffff167c0100000000000000000000000000000000000000000000000000000000028152600401602060405180830381600087803b15801561087b57600080fd5b505af115801561088f573d6000803e3d6000fd5b505050506040513d60208110156108a557600080fd5b505160008054604080517f3ff06af50000000000000000000000000000000000000000000000000000000081529051600160a060020a0390921692633ff06af5926004808401936020939083900390910190829087803b15801561090857600080fd5b505af115801561091c573d6000803e3d6000fd5b505050506040513d602081101561093257600080fd5b505160008054604080517ffe2079be0000000000000000000000000000000000000000000000000000000081529051600160a060020a039092169263fe2079be926004808401936020939083900390910190829087803b15801561099557600080fd5b505af11580156109a9573d6000803e3d6000fd5b505050506040513d60208110156109bf57600080fd5b5051600160a060020a038085166000908152600560208181526040808420805460068452828620805491909802989098029890980290960390945583529354845484517ffe2079be00000000000000000000000000000000000000000000000000000000815294517fdf2b36150760f2ca18dc8aaabeadb2e1fc13733d7721af74252f7ac7f8ed29ae96429693958995939093169363fe2079be93600480830194919391928390030190829087803b158015610a7a57600080fd5b505af1158015610a8e573d6000803e3d6000fd5b505050506040513d6020811015610aa457600080fd5b505160008054604080517f3ff06af50000000000000000000000000000000000000000000000000000000081529051600160a060020a0390921692633ff06af5926004808401936020939083900390910190829087803b158015610b0757600080fd5b505af1158015610b1b573d6000803e3d6000fd5b505050506040513d6020811015610b3157600080fd5b505160008054604080517f9670c0bc0000000000000000000000000000000000000000000000000000000081529051600160a060020a0390921692639670c0bc926004808401936020939083900390910190829087803b158015610b9457600080fd5b505af1158015610ba8573d6000803e3d6000fd5b505050506040513d6020811015610bbe57600080fd5b5051604080519687526020870195909552600160a060020a03909316858501526060850191909152608084015260a0830152519081900360c00190a1600160a060020a031660009081526005602052604081205556fea165627a7a72305820fc33bc0e395262ad69b128b4499446f87a329a3af3ad0f8116f9c1947cacf8420029",
  "source": "pragma solidity ^0.5.2;\r\n\r\nimport './TasaKwEther.sol';\r\n\r\ncontract ElectricMeter {\r\n\r\n  TasaKwEther tasa;\r\n  \r\n  address  payable public seller=0x0DbD283cFC279ac5E2f630205b29883c0C2a9aBe;\r\n  uint public valor;\r\n  address public buyer;\r\n  address payable public beneficiary;\r\n  //variable para llevar el contador de medidas para cada pagador\r\n  mapping (address => uint256) meterCount;  \r\n  //variable para llevar el balance de cada pagador\r\n  mapping (address => uint256) balance;\r\n\r\n  mapping (address => bool) isBuyer;   \r\n\r\n  event IncrementCount(\r\n        uint _date,\r\n        uint  increment,\r\n        string   ipfsHash,\r\n        address idUser\r\n    );\r\n\r\n  event Payments(\r\n        uint _date,\r\n        uint  medida,\r\n        address idUser,\r\n        uint tasaEther,\r\n        uint tasaKw,\r\n        uint precision\r\n    );\r\n\r\n    constructor(address tasaAddress) public {\r\n        beneficiary = msg.sender;\r\n        isBuyer[msg.sender] = true;\r\n        tasa= TasaKwEther(tasaAddress);\r\n       \r\n    }\r\n  \r\n\r\n  function addNewUser(uint256   value, address user) public {\r\n  \r\n      meterCount[user] = value;\r\n   \r\n  }\r\n\r\n\r\n    function incrementCount(uint256   value, string  memory ipfsHash, address user ) public returns (uint256){\r\n      \r\n      if ((meterCount[user]+value) >= 3000){\r\n        meterCount[user] = meterCount[user] + value;\r\n        pay(user);\r\n        emit IncrementCount(now,value,ipfsHash,user);\r\n      }\r\n      else{\r\n        meterCount[user] = meterCount[user] + value;\r\n        emit IncrementCount(now,value,ipfsHash,user);\r\n      }\r\n\r\n      return balance[user] ;\r\n   \r\n  }\r\n\r\n  function getCount(address user) public view returns (uint256  ) {\r\n    return meterCount[user];\r\n  }\r\n\r\n\r\n   function pay(address user) private{\r\n\r\n        // Enviamos todo el dinero que tenemos, porque\r\n        // parte de las devoluciones pueden haber fallado.\r\n       \r\n        seller.transfer(meterCount[user] * tasa.getTasaEther() * tasa.getTasaKw() * tasa.getPrecision());\r\n        \r\n        balance[user]=balance[user]-(meterCount[user] * tasa.getTasaEther() * tasa.getTasaKw() * tasa.getPrecision() );\r\n        emit Payments(now,meterCount[user],user,tasa.getTasaEther() , tasa.getTasaKw() , tasa.getPrecision());\r\n        meterCount[user]=0;\r\n\r\n    }\r\n\r\n    //funcion para injectar fondos en el contrato\r\n    function injectFounds() public payable {\r\n\r\n        balance[msg.sender]=balance[msg.sender]+msg.value;\r\n        isBuyer[msg.sender] = true;\r\n       \r\n    }\r\n\r\n    function rejectFounds() public onlyBuyer{\r\n        \r\n        msg.sender.transfer(balance[msg.sender]);\r\n        balance[msg.sender]=0;\r\n    }\r\n\r\n    //Devuelve el balance de el usuario que llama a esta funcion que ha injectado en el contrato\r\n    function getBalance() public returns (uint256) {\r\n\r\n      return  balance[msg.sender];\r\n       \r\n    }\r\n\r\n   modifier onlyBuyer() {\r\n         if (!isBuyer[msg.sender])\r\n\t        revert(\"El usuario no está dado de alta\");\r\n          _;\r\n    }\r\n\r\n        function()  external  payable  {\r\n    // this function enables the contract to receive funds\r\n    }\r\n\r\n}",
  "sourcePath": "D:\\PFG blockchain\\ProyectoFinal\\ServidorMedidor\\contracts\\ElectricMeter.sol",
  "compiler": {
    "name": "solc",
    "version": "0.5.2+commit.1df8f40c.Emscripten.clang"
  },
  "schemaVersion": "3.1.0",
  "updatedAt": "2020-06-25T18:54:26.085Z",
  "networkType": "ethereum",
  "devdoc": {
    "methods": {}
  },
  "userdoc": {
    "methods": {}
  }
}