{
  "contractName": "TasaKwEther",
  "abi": [
    {
      "inputs": [
        {
          "name": "tE",
          "type": "uint256"
        },
        {
          "name": "tKw",
          "type": "uint256"
        },
        {
          "name": "p",
          "type": "uint256"
        }
      ],
      "payable": false,
      "stateMutability": "nonpayable",
      "type": "constructor"
    },
    {
      "constant": false,
      "inputs": [
        {
          "name": "x",
          "type": "uint256"
        }
      ],
      "name": "setTasaEther",
      "outputs": [],
      "payable": false,
      "stateMutability": "nonpayable",
      "type": "function"
    },
    {
      "constant": false,
      "inputs": [],
      "name": "getTasaEther",
      "outputs": [
        {
          "name": "",
          "type": "uint256"
        }
      ],
      "payable": false,
      "stateMutability": "nonpayable",
      "type": "function"
    },
    {
      "constant": false,
      "inputs": [
        {
          "name": "x",
          "type": "uint256"
        }
      ],
      "name": "setTasaKw",
      "outputs": [],
      "payable": false,
      "stateMutability": "nonpayable",
      "type": "function"
    },
    {
      "constant": false,
      "inputs": [],
      "name": "getTasaKw",
      "outputs": [
        {
          "name": "",
          "type": "uint256"
        }
      ],
      "payable": false,
      "stateMutability": "nonpayable",
      "type": "function"
    },
    {
      "constant": false,
      "inputs": [
        {
          "name": "x",
          "type": "uint256"
        }
      ],
      "name": "setPrecision",
      "outputs": [],
      "payable": false,
      "stateMutability": "nonpayable",
      "type": "function"
    },
    {
      "constant": false,
      "inputs": [],
      "name": "getPrecision",
      "outputs": [
        {
          "name": "",
          "type": "uint256"
        }
      ],
      "payable": false,
      "stateMutability": "nonpayable",
      "type": "function"
    }
  ],
  "bytecode": "0x608060405234801561001057600080fd5b506040516060806101af8339810180604052606081101561003057600080fd5b50805160208201516040909201516000919091556001919091556002556101538061005c6000396000f3fe608060405234801561001057600080fd5b506004361061007e577c01000000000000000000000000000000000000000000000000000000006000350463176f832e81146100835780633ff06af5146100a25780639670c0bc146100bc578063a7b0966c146100c4578063fc157feb146100e1578063fe2079be146100fe575b600080fd5b6100a06004803603602081101561009957600080fd5b5035610106565b005b6100aa61010b565b60408051918252519081900360200190f35b6100aa610111565b6100a0600480360360208110156100da57600080fd5b5035610117565b6100a0600480360360208110156100f757600080fd5b503561011c565b6100aa610121565b600255565b60015490565b60025490565b600155565b600055565b6000549056fea165627a7a72305820ecde92ecc977f6247c9cf0f49bcdad4e5b00797b55e1c669d3abe932778afc500029",
  "source": "pragma solidity ^0.5.2;\r\n\r\ncontract TasaKwEther {\r\n    uint tasaEther;\r\n    uint tasaKw;\r\n    uint precision;\r\n\r\n    constructor(uint tE, uint tKw, uint p) public {\r\n        tasaEther = tE;\r\n        tasaKw=tKw;\r\n        precision=p;\r\n    }\r\n\r\n    function setTasaEther(uint x) public{\r\n        tasaEther = x;\r\n    }\r\n\r\n    function getTasaEther() public returns (uint) {\r\n        return tasaEther;\r\n    }\r\n    function setTasaKw(uint x) public{\r\n        tasaKw = x;\r\n    }\r\n\r\n    function getTasaKw() public returns (uint) {\r\n        return tasaKw;\r\n    }\r\n    function setPrecision(uint x) public{\r\n        precision = x;\r\n    }\r\n\r\n    function getPrecision() public returns (uint) {\r\n        return precision;\r\n    }\r\n}",
  "sourcePath": "D:\\PFG blockchain\\ProyectoFinal\\ServidorMedidor\\contracts\\TasaKwEther.sol",
  "compiler": {
    "name": "solc",
    "version": "0.5.2+commit.1df8f40c.Emscripten.clang"
  },
  "schemaVersion": "3.1.0",
  "updatedAt": "2020-06-25T18:54:26.191Z",
  "networkType": "ethereum",
  "devdoc": {
    "methods": {}
  },
  "userdoc": {
    "methods": {}
  }
}